:03000000020244B5
:0C024400787FE4F6D8FD758110020250AE
:080208007F0A7ED77DA37C3C38
:080210008F0C8E0B8D0A8C0986
:100218007F007E407D1C7C46AB0CAA0BA90AA8096E
:100228001200031201098F108E0F8D0E8C0D780DA0
:0B02380074FF12019AEC4D4E4F70F362
:010243002298
:1001B800E4F50820B12212020830B1FD120208E568
:1001C8000870037508081508AF08A80774010880A7
:1001D80002C333D8FCF4F5A020B3D812020830B318
:1001E800FD1202080508E508B40803E4F508AF089D
:1001F800A8077401088002C333D8FCF4F5A080B3C3
:030250000201B8F0
:10000300EC4D6011E8497017ED33EC3304600DE4F7
:10001300FCFFFEFD22E933E8330470F80201751298
:10002300014058046009E4CC248150062850090299
:10003300017F28400302017CC0E0EB4A7044B98091
:1000430006D0E0FB02016BEF4E701CBD8008EBFF96
:10005300EAFEE9FD80EBE98DF0A4FEE5F00200EC99
:10006300E9CDF9EAFEEBFFEF89F0A4FCE5F0CE89D8
:10007300F0A42EFFE435F0CD89F0A42DFEE435F095
:100083008067EF4E7005BD80D780C3EF8BF0A4ACC3
:10009300F0EE8BF0A42CFCE435F0F8EF8AF0A42CFE
:1000A300E5F038FCE433CB8DF0A42CFCE5F03BF811
:1000B300EE8AF0A42CFCE5F038F8E433CF89F0A401
:1000C3002CFCE5F038CF3400CE89F0A42FFFE5F007
:1000D3003EFEE433C98DF0A42EFEE5F039CD8AF05F
:1000E300A42FFFE5F03EFEE43DFD33D0E0FB5007D7
:1000F3000BBB000F02017FEC2CFCEF33FFEE33FE52
:06010300ED33FD0201577F
:10010900EDD2E7CD33EC3392D524814006E4FFFEEE
:10011900FDFC22FCE4CFCECDCC24E0501174FF804D
:10012900EDC3CC13CCCD13CDCE13CECF13CF0470EA
:07013900F030D5DE02018A5F
:10014000E9D2E7C933E833F892D5EDD2E7CD33EC05
:0701500033FC5002B2D5227E
:10015700EC30E7100FBF000C0EBE00080DBD000409
:100167000BEB6014A2D5EB13FCED92E7FD2274FFB5
:10017700FCFDFEFF22E480F8A2D574FF13FC7D800E
:03018700E480EF22
:0E018A00C3E49FFFE49EFEE49DFDE49CFC2286
:100198007401FF3395E0FEFDFC080808E6CF2FF652
:1001A80018E6CE3EF618E6CD3DF618E6CC3CF6222B
:00000001FF
