:03000000020710E4
:0C071000787FE4F6D8FD758107020757DA
:030DCF000209E82E
:10000E00EF1FAC0670011E4C600A7D027CEFDCFE19
:04001E00DDFC80EC99
:0100220022BB
:050B5C0078001202A563
:100B6100E4FFFE7D207C417800E2FB08E2F908E227
:100B7100FA08E2CBF812002612012C78041202A521
:0D0B8100780474FF120287EC4D4E4F70F3A4
:010B8E002244
:1008A40091083F065B4F666D7D077F6F777C395EED
:0308B40079710057
:040827007C007E00D3
:10082B00AB07AA06EB7802CEC313CE13D8F9C39449
:10083B0001EE940050028001C392A4EB64054A7050
:10084B00047F0180027F00EB64044A70047E018008
:10085B00027E00EE4FFFEB64014A70047E018002C2
:10086B007E00EE4FFFEB4A70047E0180027E00EEAD
:10087B004F6003D38001C392A3EB30E003C380012D
:10088B00D392A274082DF8E2F5807F007E007D8064
:09089B007C3F120B5CE4F58022A5
:100905007D057C00E4FFFE12082B7D067F011208A1
:10091500277D077F021208277D087C007F037E0064
:1009250012082B7D097C007F047E0012082B7D0AAE
:100935007C007F057E0012082B7D0B7C007F067EE8
:100945000012082B7D0C7C007F077E0012082B808F
:01095500AFF2
:060D5C00C2A58F80D2A7A2
:080D62007F027EEFDEFEDFFCE4
:010D6A002266
:0A0D9C00C2A6120D5CC2A7020D6290
:100C3400E2FC08E2FDCFCDCFCECCCE1201EC7C009D
:090C44007D0A1201ECED2430FFE1
:0A0C4D00D2A6120D5CC2A7020D62D0
:050C7800EAF208EBF2B6
:100C7D00AE07EEB40104ED148007EEB40209ED24C5
:080C8D003F4480FF120D9C2280
:100D26007F38120D9C7F0C120D9C7F06120D9C7F46
:040D360001020D9C0D
:080DAF00120C7DAF03020C4D94
:0A0BBD007819EBF208EAF208E9F2F9
:100BC700120C7DE4FD7819E2FB08E2FA08E2F98DE0
:100BD700827583001201ADFF6006120C4D0D80E592
:010BE70022EB
:0C0A29007F0AEA24FFFDE434FFFC7E009D
:0D0A35007877EEF208EFF208ECF208EDF22F
:100A42007F017E00E4FBEBFDD3787AE29D7480F5B2
:100A5200F018E2648095F0400D7877E2FC08E2FD40
:060A62001201DA0B80E036
:010A6800226B
:020CB000781EAC
:100CB200120C7808E2FAEAD39400400B120A29785F
:070CC2001E120C341A80EF32
:010CC9002208
:100A6900120C7DC3EA64809480400E7F2B120C4DDA
:100A79007826EAF208EBF280117F2D120C4DC3E4BF
:100A89009BFEE49A7826F208CEF27825E2FAEAD3B8
:0F0A99009400400B120A297826120C341A80EFB1
:010AA800222B
:020AE700787421
:100AE900120C7808E2FAEAD39400402C7F10120A1B
:100AF9002B7874E2FC08E2FDCFCDCFCECCCE12012B
:100B0900ECEF540FFEC3940AEE5004243080022403
:080B190037FF120C4D1A80CECB
:010B210022B1
:020B2200782A2F
:100B2400120C7808E2FAEAD39400402BEA24FFFD81
:100B3400E434FFFC7F027E00120A35782AE2FC08C6
:100B4400E2FDCFCDCFCECCCE1201ECEF5401243058
:070B5400FF120C4D1A80CFC7
:010B5B002277
:100D3A0050617373776F726400594553004552527C
:020D4A000000A7
:0808B70082301A85822E000038
:1002B100E4782DF27590FFC29320971CFFFE7DA07C
:1002C1007C41120B5C3097FD7F007E007DA07C415C
:1002D100120B5C782D7401F220961E7F007E007D4A
:1002E100A07C41120B5C3096FD7F007E007DA07CDE
:1002F10041120B5C782D7405F220951E7F007E0063
:100301007DA07C41120B5C3095FD7F007E007DA0BD
:100311007C41120B5C782D7409F220941E7F007EC3
:10032100007DA07C41120B5C3094FD7F007E007D3E
:10033100A07C41120B5C782D740DF27590FFC29276
:1003410020971E7F007E007DA07C41120B5C3097C0
:10035100FD7F007E007DA07C41120B5C782D740234
:10036100F220961E7F007E007DA07C41120B5C3046
:1003710096FD7F007E007DA07C41120B5C782D7480
:1003810006F220951E7F007E007DA07C41120B5C51
:100391003095FD7F007E007DA07C41120B5C782DA5
:1003A100740AF220941E7F007E007DA07C41120B16
:1003B1005C3094FD7F007E007DA07C41120B5C7857
:1003C1002D740EF27590FFC29120971E7F007E0062
:1003D1007DA07C41120B5C3097FD7F007E007DA0EB
:1003E1007C41120B5C782D7403F220961E7F007EF7
:1003F100007DA07C41120B5C3096FD7F007E007D6C
:10040100A07C41120B5C782D7407F220951E7F00B1
:100411007E007DA07C41120B5C3095FD7F007E004B
:100421007DA07C41120B5C782D740BF220941E7F11
:10043100007E007DA07C41120B5C3094FD7F007E2C
:10044100007DA07C41120B5C782D740FF27590FF3A
:10045100C29020971E7F007E007DA07C41120B5C24
:100461003097FD7F007E007DA07C41120B5C782DD2
:100471007404F220961E7F007E007DA07C41120B49
:100481005C3096FD7F007E007DA07C41120B5C7884
:100491002D7408F220951E7F007E007DA07C411204
:1004A1000B5C3095FD7F007E007DA07C41120B5CD2
:1004B100782D740CF220941E7F007E007DA07C417B
:1004C100120B5C3094FD7F007E007DA07C41120BFD
:0A04D1005C782D7410F2782DE2FF24
:0104DB0022FE
:100D1100E4782EF208F278207404F2E4FBFA7D0103
:050D21007F02020CB08E
:10063F007BFF7A0D793A7D017F01120BBD1202B15A
:10064F007832EFF2602FE26410702A782EE2FE0803
:10065F00E2FF7831E2B5070D18E2B506087BFF7AA5
:10066F000D794380067BFF7A0D79477D0E7F01124E
:10067F000BBD120D117832E2B40F10120D117BFF6A
:10068F007A0D794B7D0E7F01120BBD7832E2FF6040
:10069F00ACD3940A50A7EF75F00A84AFF0EFF2FBDA
:1006AF00782EE2FE08E2FF7C007D0A1201DA782E36
:1006BF00EEF208EFF2EBFFE22FF218E23400F2E273
:1006CF00FA08E2FBD3940FEA648094A7500F7820C6
:1006DF007404F27D017F02120CB002064C7832E2F4
:1006EF00FFC3782FE29FFF18E29400FEF208EFF2AB
:1006FF007C007D0A120241782EEEF208EFF202061C
:01070F004C9D
:0C08BF00823300328237003B8235001784
:100CE3005389F0438901C28DD28C758CFC758A18A7
:070CF300D2A9D2AFC2B92261
:100C950075985043878053890F438920C2ABD28E04
:0B0CA500758DF3758BF3D2AFD2AC223B
:080DB7008F993099FDC29922C9
:05000600120C9580FEC4
:03002300020CCA02
:100CCA00C0D075D000C00730980A8599A0AF991294
:090CDA000DB7C298D007D0D0324A
:1008CB00A0203CFF080808FF000E15151508007E38
:1008DB000102007E0102000E11110E00FD0000004E
:0308EB000000000A
:020B8F00AD07B0
:100B9100E4FB7E007480A803088006CEA2E713CE92
:100BA10013D8F8FFEDF582EF558224FF92B4D2B647
:0B0BB100C2B60BEBB408DBD2B5C2B536
:010BBC002216
:100BE800AA07AF05120B8FAF02A80774800880020E
:100BF800C313D8FCF4F5807F007E007D807C3F1213
:060C08000B5C7580FF2269
:1009A100E4783AF208F2C2B6C2B5E47839F278399D
:1009B100E2FF08E2FEEF2E243CF8E2FD7C00120B80
:1009C100E8783BE204F2E2D39464400EE4F218E2E8
:1009D10004F2E2D394184002E4F27839E204F2E23C
:0709E100C3940840C980C364
:10079C00E4785CF220B11CFFFE7DA07C41120B5C66
:1007AC0030B1FD7F007E007DA07C41120B5C785C3B
:1007BC007401F220B01E7F007E007DA07C41120BE4
:1007CC005C30B0FD7F007E007DA07C41120B5C781C
:1007DC005C7402F220B21E7F007E007DA07C411270
:1007EC000B5C30B2FD7F007E007DA07C41120B5C67
:1007FC00785C7403F220B31E7F007E007DA07C41E8
:10080C00120B5C30B3FD7F007E007DA07C41120B8F
:0A081C005C785C7404F2785CE2FF83
:0108260022AF
:100C5700C290EBFF7E00120C6DD290EBFFC3746461
:060C67009FFFE49400FE73
:0B0C6D00EF1FAC0670011E4C70F62259
:100C0E00E4FBE4FD120C570DEDB414F80BEBB464D9
:100C1E00F17B64EBD3940040E7E4FD120C570DED2D
:060C2E00B414F81B80ED78
:100CFA005389F0438901C28DD28C758CFF758A9C09
:070D0A00D2A9D2AFC2B92249
:10095600120CFA785E7432F212079C7860EFF26439
:1009660001702A785DE204F2E25403F2700208F2A2
:10097600785DE2FFB40104087428F2EFB40205784A
:100986005E743CF2EFB40305785E745AF2785DE269
:0B099600FD7C00E4FFFE12082B80BD7A
:030DD200020956BD
:03000B00020AA93D
:100AA900C0E0C0F0C0D075D000C000C006C0077556
:100AB9008CFF758A9C785FE204F2E275F06484AF7A
:100AC900F0EFF218E2FEEFC39E5004D2908002C20A
:0E0AD90090D007D006D000D0D0D0F0D0E032C0
:0B0D9100D288C289D2A8D2AFD2B8220B
:1008EE0082620000816100816B00816D0081690070
:0608FE0081650081640029
:100D4C005389F0438901C28DC28CE4F58CF58A225B
:0C0D8500AD07AC06ECF58CAF058F8A22A0
:090DA600AF8CEFFEAD8AEDFF22D7
:060DBF00EF24FF928C22DC
:0D0D6B00786DE26005E4F27F01227F002236
:0D0D78007869E26005E4F27F01227F00222D
:050DC5007865E2FF2249
:050DCA007864E2FF2245
:1009E800120D26120D4C120D91120D6BEF60FA12BA
:1009F8000DC5786CEFF2120DCA786AEFF2786CE2E6
:100A0800FB7A0078767402F27D01FF120AE7786AB1
:100A1800E2FB7A0078767402F27D05FF120AE7801D
:010A2800C805
:030003000204DC18
:1004DC00C0E0C0D075D000C000C003C004C005C0CF
:1004EC0006C0077861E2FF700E8FA0FFFE120D852B
:1004FC007F01120DBF80587861E2FB6401705612C7
:10050C000DA608EEF208EFF27861E2F5A0E4FFFE2A
:10051C00120D8508E2FE08E2FFD394C8EE94324037
:10052C0013EF94B0EE9436500B75A01178617402F1
:10053C00F202062ED3EF94FEEE94294010EF94E6CF
:10054C00EE942D500878697401F2020625786174D6
:10055C0001F202062EEB6402600302062E120DA6B7
:10056C007862EEF208EFF2E4FFFE120D8518E2FE5F
:10057C0008E2FFD3946CEE9402402AEF9454EE946C
:10058C00065022786BE2FF131313541F246EF8C02D
:10059C0000E2FEEF5407FFF87401088002C333D861
:1005AC00FCF45E80367862E2FE08E2FFD394D6EE6D
:1005BC0094064031EF94BEEE940A5029786BE2FF1A
:1005CC00131313541F246EF8C000E2FEEF5407FF00
:1005DC00F87401088002C333D8FC4ED000F2786B5B
:1005EC00E204F28008786BE4F2786104F2786BE252
:1005FC00C39420402DE4F2786FE2F4FF18E2FEB5CC
:10060C0007177871E2F4FF18E2FDB5070C7865EE78
:10061C00F218EDF2786D7401F2E4FF120DBF7861FF
:10062C00E4F2D007D006D005D004D003D000D0D04F
:03063C00D0E032D9
:10002600EC4D6011E8497017ED33EC3304600DE4D4
:10003600FCFFFEFD22E933E8330470F80201981252
:10004600016358046009E4CC248150062850090253
:1000560001A228400302019FC0E0EB4A7044B98028
:1000660006D0E0FB02018EEF4E701CBD8008EBFF50
:10007600EAFEE9FD80EBE98DF0A4FEE5F002010F52
:10008600E9CDF9EAFEEBFFEF89F0A4FCE5F0CE89B5
:10009600F0A42EFFE435F0CD89F0A42DFEE435F072
:1000A6008067EF4E7005BD80D780C3EF8BF0A4ACA0
:1000B600F0EE8BF0A42CFCE435F0F8EF8AF0A42CDB
:1000C600E5F038FCE433CB8DF0A42CFCE5F03BF8EE
:1000D600EE8AF0A42CFCE5F038F8E433CF89F0A4DE
:1000E6002CFCE5F038CF3400CE89F0A42FFFE5F0E4
:1000F6003EFEE433C98DF0A42EFEE5F039CD8AF03C
:10010600A42FFFE5F03EFEE43DFD33D0E0FB5007B3
:100116000BBB000F0201A2EC2CFCEF33FFEE33FE0B
:06012600ED33FD02017A39
:10012C00EDD2E7CD33EC3392D524814006E4FFFECB
:10013C00FDFC22FCE4CFCECDCC24E0501174FF802A
:10014C00EDC3CC13CCCD13CDCE13CECF13CF0470C7
:07015C00F030D5DE0202774E
:10016300E9D2E7C933E833F892D5EDD2E7CD33ECE2
:0701730033FC5002B2D5225B
:10017A00EC30E7100FBF000C0EBE00080DBD0004E6
:10018A000BEB6014A2D5EB13FCED92E7FD2274FF92
:10019A00FCFDFEFF22E480F8A2D574FF13FC7D80EB
:0301AA00E480EFFF
:10071C00020DCFE493A3F8E493A34003F68001F217
:10072C0008DFF48029E493A3F85407240CC8C333DE
:10073C00C4540F4420C8834004F456800146F6DFAD
:10074C00E4800B01020408102040809008A4E47E91
:10075C00019360BCA3FF543F30E509541FFEE493A2
:10076C00A360010ECF54C025E060A840B8E493A369
:10077C00FAE493A3F8E493A3C8C582C8CAC583CA94
:10078C00F0A3C8C582C8CAC583CADFE9DEE780BE4C
:0109040000F2
:1001AD00BB010CE58229F582E5833AF583E0225007
:1001BD0006E92582F8E622BBFE06E92582F8E22251
:0D01CD00E58229F582E5833AF583E493226B
:1001DA00EF8DF0A4A8F0CF8CF0A428CE8DF0A42E39
:0201EA00FE22F3
:1001EC00BC000BBE0029EF8DF084FFADF022E4CCF7
:1001FC00F875F008EF2FFFEE33FEEC33FCEE9DECC0
:10020C00984005FCEE9DFE0FD5F0E9E4CEFD22ED05
:10021C00F8F5F0EE8420D21CFEADF075F008EF2F4F
:10022C00FFED33FD4007985006D5F0F222C398FD40
:05023C000FD5F0EA22DD
:10024100C2D5EC30E709B2D5E4C39DFDE49CFCEED8
:1002510030E715B2D5E4C39FFFE49EFE1201ECC363
:10026100E49DFDE49CFC80031201EC30D507C3E45E
:060271009FFFE49EFE2247
:0E027700C3E49FFFE49EFEE49DFDE49CFC2298
:100285007401FF3395E0FEFDFC080808E2CF2FF26C
:1002950018E2CE3EF218E2CD3DF218E2CC3CF22255
:0C02A500ECF208EDF208EEF208EFF22295
:00000001FF
